:020000041021C9
:1000000000F80120F1012110170221101702211020
:100010001702211017022110170221100000000002
:100020000000000000000000000000001702211086
:1000300017022110000000001702211017022110E2
:10004000B909211053C42110AD1D2110000000007A
:10005000170221101702211000000000A5682110CE
:1000600000000000170221101702211000000000FC
:1000700017022110000000001702211017022110A2
:100080001702211017022110018521100785211068
:100090000D85211013852110170221108CB044F218
:1000A0007830C2F201001C210DF077FA684600F0AA
:1000B000B5FC2D48016841F440710160016841F4CC
:1000C0004061016000F03DFF44F25C24C2F2010493
:1000D00001214FF0FF322071012500F077FF012050
:1000E00001F058F805F098FE44F20000C2F2010059
:1000F00006F04CFD20464FF486710DF04EFA40F2AA
:100100006D10C1F221000021002601F049FC2060A1
:1001100040F2AF10C1F22100002105F01FFD4FF4A5
:10012000E130049008208DF816004FF0042001966D
:10013000ADF81460CDE9066503900A20089040F2FE
:10014000DD10C1F22100099040F2DF10C1F2210060
:100150000A9001A9022008F0A7FC01F0B8FC0028D1
:10016000FBD000F09DFDF8E704680050F0B583B0C7
:10017000C80718D044F25C20C2F201004FF4827725
:10018000441D02AD01AE022021462A4633460297A5
:1001900008F074FF38B90298214605F068FD10B9DF
:1001A00001980028EFD14FF0FF3003B0F0BD70B5DB
:1001B00082B005460020019075B10C4661B101AED8
:1001C000022021462A46334609F012F810B9019858
:1001D0002D1A0444002DF3D102B070BD704744F2D3
:1001E0005C20C2F201000068012101F04CBC00005B
:1001F00000F024F80849094A094B043BA2BFC8583B
:10020000D050FAE70749084A0020043AA4BF8850B2
:10021000FBE7FFF743FFFEE7A80B22100040012099
:100220005C0200005C420120FC0400000B4844F228
:100230003401C2F201010860704700BF44F234008B
:100240000649C2F20100064A0160506840F0C00051
:100250005060106840F00200106070470048E801EC
:10026000006800500022C1F22102964B904288BFE4
:100270000246994238BF0B46934201D2002010E05B
:10028000A2F18150C00BA3F181514FF0FF32C90B95
:1002900002FA00F0022202FA01F14FF6FF72114455
:1002A000084080B2704700BF4A1E032A0AD81421B2
:1002B000DFE802F00A020406162105E0152103E03A
:1002C000172101E000201021B0B5324D0022022399
:1002D000012404FA03FC1CEA000F09D055F823E0BE
:1002E00042EA0C022EF0370E4EEA010E45F823E0EA
:1002F0000E2B03F10103ECD390B2B0BD0021C1F28B
:100300002101884218D36F49884215D8A0F1815045
:100310002049C00B51F8200000F00700011F0329FD
:100320000AD80120DFE801F009020406032004E0F6
:10033000022002E0042000E000207047002A18BFDD
:10034000012201294FEA820306D009B1002008E00A
:100350001B046FF45C1C04E0190201F500536FF4F8
:100360005C5C70B50B4D00210222012404FA02FEF0
:100370001EEA000F08D055F8226041EA0E0106EA95
:100380000C061E4345F822600E2A02F10102EDD34D
:1003900088B270BD00100450B0B582B044F2683429
:1003A000C2F20104206810B16FF00B000FE00125CC
:1003B0004FF0000C01AA40F20140022100230195F8
:1003C000CDF800C00AF098FD08B90020256002B001
:1003D000B0BDB0B582B044F26834C2F20104206806
:1003E00010B96FF00B000CE0002501AA40F20140AB
:1003F00002210023019500950AF07EFD08B9002036
:10040000256002B0B0BD00BFF0B583B00C46114608
:1004100016460546029200F03BF810B96FF009004D
:1004200034E044F26830C2F20100006808B9944830
:100430002CE0680702D1F70801970FE001AA2846CF
:100440002146019600F044F80199A6EB01064FEA17
:10045000D60702960197C8B90D440C4477B12846D7
:1004600021463A4600F05CF8F900A6EBC706019178
:10047000029658B905EBC70504EBC7040EB9002076
:1004800004E002AA2846214600F022F803B0F0BD9D
:100490000022C1F22102904208D30A4A904205D8B4
:1004A000094A121A8A4201D301200AE0514A9042B5
:1004B00006D3514A904203D8044A101A8842F3D214
:1004C00000207047FF7F271000802710000C045089
:1004D000B0B582B020F0070C0346DCE90004964674
:1004E000CDE9000403F00702DEF8003000206C467E
:1004F00063B111F8015B072AA55402F1010200F172
:100500000100A3F10103CEF80030F1D3CEF80000D2
:1005100069466046012200F003F802B0B0BD00BF9A
:100520002DE9F04F334C324BA04206D3324CA0425F
:1005300003D8324C0127204400E000275F62C0F35B
:10054000CF0C2F48022786464D484FF000098046C1
:100550000AB9002047E03F201862042098605869DB
:100560008007FCD50026002002E00136072E30D897
:100570000AB900222DE0B0BB8C7891F803B091F855
:1005800001A02404087844EA0B6444EA0A242044C5
:10059000CEF800008D79744691F807A04C792D04AF
:1005A000087945EA0A6545EA0424204408311860C0
:1005B000C3F804C09F6058698007FCD5D86908B1AA
:1005C000404603E00CF1010C013A00205FEA8C6424
:1005D000CBD140B90320986058698007FCD5D86911
:1005E000C006B5D50748C3F82490BDE8F08F00BF1A
:1005F00004180450000B0450FF0B045000F8FBAF2C
:10060000001804503F2BFEFFF0B591B00C46054694
:10061000FFF73EFF10B96FF009002FE044F2683099
:10062000C2F20100006808B9154827E06846402179
:10063000FF2240260CF0B2FF680701D100200CE039
:10064000694610AA2846402C38BF26461096FFF768
:100650003FFF109E88B93544A41B6F466CB14026FD
:10066000402C38BF2646284639463246FFF7CCFE96
:1006700035440028A4EB0604F0D0109611B0F0BD6C
:100680003E2BFEFF10B544F26C34C2F20104206828
:1006900010B16FF00B000EE044F2587046F658317E
:1006A000C2F20100C2F20101091A00F005F8B0FA25
:1006B00080F14909216010BDB0B510B94FF0FF308D
:1006C00018E01429FAD30446A1F10C00810847F67A
:1006D000FF75A94238BF8508022DEFD320461421AB
:1006E0000CF05BFF24F80C5F04EB850044F8040C6D
:1006F00000206580B0BD10B540F29C04C2F2010438
:10070000206810B16FF00B000EE040F22C2040F694
:100710002C61C2F20100C2F20101091AFFF7CCFFFD
:10072000B0FA80F14909216010BD10B544F26C3176
:10073000C2F20101096871B1044601F05FF944F2A7
:100740005870C2F20100214600F007F8044601F09B
:100750006CF9204610BD002010BD70B500284FF088
:10076000000249D00331012303EB910EB2EB910F4C
:1007700008BF4FF0020EB2EBDE3F3DD1836800F1BF
:100780000C0C634501D8002236E06246B2F9024003
:10079000002C02D4A5B2AE4506D96FF3DF3402EBCC
:1007A00084029342EFD9F1E7A4EB0E018EB2022E40
:1007B00016D34EF40044548074466FF3DF3402EBDA
:1007C000840522F824E00C466FF3DF3405EB840443
:1007D000A342698001D9218006E0ACF8001003E053
:1007E00044F40041AE465180D0E900130432714414
:1007F0008B42016000D24160104670BD10B540F2DE
:100800009C01C2F20101096871B1044601F0F6F8D9
:1008100040F22C20C2F201002146FFF79EFF044661
:1008200001F003F9204610BD002010BD014644F23E
:100830005870C2F20100814210D346F65830C2F21D
:10084000010081420AD844F26C30C2F20100006813
:1008500050B144F25870C2F201000BE040F29C002B
:10086000C2F20100006800B9704740F22C20C2F2C9
:100870000100FFE780B5D8B3D1B300F110028A427E
:1008800036D8D0F808C08C4532D931F9022CB2F1F3
:10089000FF3F2DDC03686FF3DF329B1A40F80C3BFF
:1008A0000B1F834221F8022C0AD01988A3EB810E7A
:1008B000BEF90210002903D411447346AEF80210A9
:1008C00059880A466FF3DF3203EB8202944505D95B
:1008D000B2F90220002A01D4114459800A466FF36C
:1008E000DF3203EB8202944501D9118000E00180E0
:1008F00080BD10B50C4608B9002010E0024644F255
:100900006C30C2F20100006810B96FF0060006E01A
:1009100044F25870C2F20100114600F013F844B1DD
:1009200038B940F29C00C2F20100006810B96FF0C3
:10093000060010BD40F22C20C2F201002146BDE8A5
:100940001040FFE710B94FF0FF3033E00029FAD034
:10095000B0B500224A61C1E9032290E8181000F105
:100960000C0EBCEB0E0008604FEA830048604FEAB3
:100970008400886019D9002300240020BEF90250A9
:10098000B5F1FF3F02DC0130C86008E0AAB20133D4
:1009900094420B6101D3224601E014464A616FF391
:1009A000DF350EEB850EE645E8D390004861002068
:1009B000BDE8B0407047000070B5104816490068A7
:1009C000096840F2A00601EA00050C24C2F2010603
:1009D00025FA04F0C0070BD0204600F011F806EB12
:1009E000C400D0F8A4201AB1D0F8A810204690472F
:1009F000002CA4F10104EBDC70BD00BF1C680050AA
:100A00000C2802D96FF0010005E00121024A01FA29
:100A100000F0106000207047206800502DE9F0477A
:100A2000044600F0EDF844F27435C2F20105286086
:100A300004B1206044F27030684E824FC2F201006F
:100A40004FF0010980F80090FFF71CFE04460028D3
:100A500040F0B7802868002800F0A6803868604D14
:100A600040F0020038608020C5F20000016841F0CB
:100A700001010160D7F8F4035A4920F48030C7F827
:100A8000F403F86840F4C070F860B1F90010286809
:100A9000B1F1FF3F02DC40F0080001E020F0080067
:100AA000286051480078010700F0070002D5C0F126
:100AB000130000E0133055F8241C40F2000421F02C
:100AC0001F01014445F8241CD5F8EC10C2F20104C2
:100AD00021F01F0108440021C2F2010140F62C68F8
:100AE0008C424FF00001C2F201084FF000023F4B70
:100AF00038BF0121444528BF0122114398454FF0DA
:100B0000000288BF01221143C5F8EC0002D06FF04B
:100B1000090456E040F29C0040F22C21C2F2010090
:100B2000C2F2010140F2A00A091AC2F2010A0CF055
:100B300034FDFFF7E0FD2E498C42044606D82D48CF
:100B4000804501D3502002E0102000E04020AAF8A8
:100B50000C0078603068282161F308003060386844
:100B6000C00704D001208AF808008AF80A00D7F8E4
:100B7000F40300F00300012803D101208AF80900E2
:100B80000EE0A868C0070BD000F05EF81A4D804652
:100B900000F05AF8A0EB0800A842F9D300F060F882
:100BA0000120CAF800000CE000F028FF40F2A0008D
:100BB000C2F2010000690021002400F05FF800F09B
:100BC00034FF00203064072030650320B8600B48F4
:100BD000C0F800902046BDE8F08700BF04880050B0
:100BE00028480050860B0450270B0450FF3F01207B
:100BF000FF1F012000200120E093040000E100E03D
:100C00009948006810F0F00F0FD040F2A001C2F236
:100C100001010A684AB18A894968801AB1FA81F1EA
:100C200018BF01204909084370470120704700BFE1
:100C3000044900280A6822F0020218BF02320A6042
:100C4000704700BF106800500449012008604869DF
:100C5000C007FCD0886800220A60704724880050D2
:100C60000548002141600160D0F8941021F0800116
:100C7000C0F89410704700BF30480050B0B505462A
:100C800040F2A0000C46C2F201000021416035B1E3
:100C9000D5E90321204690472D68002DF8D1B0BD3D
:100CA0002DE9F04381B040F2A007C2F20107396894
:100CB000002900F098800446FFF7C6FF611C054636
:100CC00004D14FF0FF344FF0000809E0DE484FF444
:100CD0007A71844238BF204600FB01F405EB04081A
:100CE00000F08CFE44F27830C2F2010080680028E7
:100CF00074D1D7F8A0003D490028894649D1D7F8DA
:100D00009C00002120FA01F2D2070CD007EB8102EF
:100D1000D269531B13F5801F34D2661C01D09C424C
:100D200001D990461C461F2901F10101EAD3601C3C
:100D300006D014F5801F25D241F28930844230D389
:100D40007E6901257D603EB1B16830698847A8B1F0
:100D50007668002EF8D1054600F0E0FD064640B169
:100D600023485A210160A521016096210160692173
:100D7000016000204946C9F800000EE030680121FA
:100D8000FFF77CFF0320C9F800000320C9F800002A
:100D900024E00320002500260860601C07D130BF36
:100DA00011E00320002500264946C9F8000040460E
:100DB00000F024F830B10F48002130BF01600E4828
:100DC000072101604946032008603DB116B1304655
:100DD00000F07AFD38690121FFF750FF01B0BDE84E
:100DE000F04300F022BE01B0BDE8F0831868005067
:100DF0000CC8005044880050548800500649032213
:100E00008A6107224A6101220A614A600860886893
:100E1000C043C00F704700BF40880050B0B5124CAF
:100E2000D4F8EC1311F0330F1DD1411C0CD0864DBA
:100E3000A84238BF0546FFF707FF4FF47A7105FB5C
:100E40000100FFF7DBFF60B140F2A000C2F2010039
:100E5000016811B100210160818100202060606083
:100E600030BF02486061B0BD146800504EEBB40062
:100E70002DE9F04381B040F2A005C2F20105904691
:100E80002A680AB9002434E006460028FAD00F4642
:100E90000029F7D018209946FFF7B0FC0446002837
:100EA0004FF00000EED084F81480C4E9000004F193
:100EB000080080E8C00200F0A1FD686910B92C614B
:100EC0006C6114E0017D414509D940680028F9D1E1
:100ED00028690021C4E9000144602C6107E0016831
:100EE00060602160046021680029E9D04C6000F056
:100EF0009CFD204601B0BDE8F083B0B540F2A005EE
:100F0000C2F201052968D9B10446C8B100F076FDE6
:100F1000286900E0006878B1A042FBD1D4E9001054
:100F200008B1016000E02961216809B1486000E072
:100F300068612046FFF77AFCBDE8B04000F075BD5F
:100F4000B0BD10B540F2A004C2F20104206808B997
:100F5000002418E000F052FDA1690020012202FAED
:100F600000F3194208D11943A16104EB80014FF04D
:100F7000FF32CA61441C04E01F2800F10100EED3D7
:100F8000002400F052FDE0B210BDB0B540F2A00464
:100F9000C2F201042168B9B1B0B1202814D80138D7
:100FA000012101FA00F500F029FDA069284207D0CF
:100FB000A843A061D4E92701A843A943C4E92701B4
:100FC000BDE8B04000F031BDB0BD00BFF0B581B0AC
:100FD00040F2A004C2F20104236813B94FF0FF30BD
:100FE0002FE010B96FF001002BE01F28FAD801297B
:100FF000F8D8461E012000FA06F5E1B9501C10D0C1
:10100000114FBA4238BF1746FFF71EFE4FF47A71F0
:1010100007FB010004EB8601C861D4F89C0028435B
:1010200002E0D4F89C00A843D4F8A010C4F89C00B7
:1010300021EA050002E0D4F8A0002843C4F8A0008B
:10104000002001B0F0BD00BF1E854100012901D183
:10105000032201E051B90022052807D86FF00701EB
:101060000023DFE800F00B030A1806086FF0010107
:1010700011E0082302E00A2300E0042307480321CB
:10108000D0F800C099409A402CEA010C114041EA86
:101090000C01016000210846704700BF0468005041
:1010A000052820D8DFE800F007030A0E121688484A
:1010B0000068800811E0864800680EE084480068F7
:1010C00000090AE082480068800906E0804800685C
:1010D000000A02E07E480068800A00F0030003284E
:1010E00001D1012000E00020704700BF10B540F2A0
:1010F000A001C2F201010A7A60B142B90A4C10485B
:101100005023236003685BB2B3F1FF3FFADC501C4D
:10111000087207E032B1501E0206087202D102487E
:10112000A021016010BD00BF1440005004480068B9
:1011300000F42070A0F52070B0FA80F040097047EC
:1011400018400050B0F52F7F01D2002013E0B0F519
:10115000617FFAD800EB80007C2101EB400080B277
:101160007D210B4AB0FBF1F01168C0F1080060F37B
:10117000050101201160704705487D21006800F0DD
:101180003F00C0F1480048430A21B0FBF1F070472E
:101190000C480050F0B581B040F2A004C2F2010446
:1011A00014F80A1F002867D021B9494D3F4FE8596C
:1011B000C00700D05CE00120FFF798FF3C483D49A4
:1011C00002884A6042888A60828813466FF31F3320
:1011D000CB60C2F302324A62C28813466FF31F33F8
:1011E0000B61C2F302328A6202894FF4E0434A6122
:1011F000B0F888208A61B0F88C20CA61B0F88E20DF
:101200000A62828903EA023603EA4223CE620B6352
:10121000C2F388124A63C28900238A630269CFF647
:10122000E0739A438A6502690023C2F38752CA6356
:10123000B0F88A20CFF6FE734A6442898A64426914
:101240009A43CA64C28A43F6F0731A400A60B0F83F
:1012500090200A65B0F892004865E85940F0010016
:10126000E8512868C004FCD5686840F40030686024
:1012700020780130207009E019B1481E0106207065
:1012800004D11349094A8858C00701D101B0F0BD03
:10129000486820F400304860885820F0010300209E
:1012A0008B5001B0BDE8F040FFF720BF10FCFFFFFE
:1012B000000B04504820005005480068C0F300307F
:1012C000704700BF02480068C0F34030704700BF5D
:1012D000006C00502DE9F04782B040F2A008C2F245
:1012E0000108164618F8092F012840F08F80002ABF
:1012F0006BD15C4D08469A4600F0BCF8D5F8949046
:101300002868C00702D04FF0FF34A5E07E2000EA35
:1013100049003F2828BF3F2029F03F01084340F003
:101320008000C5F894000120504928600C7806BB65
:101330004F4804FB00F6FFF787FC4B4F0446FFF7CE
:1013400083FC001BB842FAD3C5F89490FFF77CFCED
:101350000446FFF779FC001BB042FAD368684049A5
:1013600040F0010068600868012262F30100086033
:1013700029E01820FFF7D9F920B9FFF771FC6FF0C9
:10138000020469E0002705460772C0E9006A64208C
:101390006043002C08BF012005F1100641F2CD4149
:1013A0006861C1F2210130462A460023C5F80C903D
:1013B00004F0F2FF0446B8B930782B4A00230097B6
:1013C00005F052F860B900241AE025486FF00504D2
:1013D000006800F00300012808BF6FF00B040FE065
:1013E0000446307805F017F82846FFF71FFAFFF794
:1013F00037FC14F10C0003D0A01D2DD16FF00504B3
:1014000098F80000013088F8000025E022B1511E54
:101410000A0688F800101ED1022808D010B16FF01B
:10142000010419E00E48016821F0030103E00C48B3
:10143000016841F0030101600A480068C0070AD052
:10144000FFF702FC084D0446FFF7FEFB001BA84215
:10145000FAD3FFF705FC0024204602B0BDE8F08770
:10146000046C005030480050E0930400D00B04504E
:10147000A08601001349642290FBF2F28B78088861
:101480009A4205DBCB789A4201DA400900E0800AF3
:10149000B1F8521000F01F000A30C1F345220A4B88
:1014A00050436FF35F210F301960284B02093F2A28
:1014B0001A684FF03F0138BF010922F03F0008438E
:1014C00018607047340B0450C8480050B0B582B063
:1014D0000446007A60B11C48E34A0168002541F0E7
:1014E000010101601068012161F3010010601CE03E
:1014F000E06816494FF47A72086001206169207231
:10150000207C4A4300210023009104F0ADFFC8B1C4
:10151000054640F2A000C2F20100417A19B101393A
:101520000A06417201D1FFF79BFBD4E9002128464E
:101530009047207C04F06FFF204602B0BDE8B04029
:10154000FFF774B902B0B0BD34480050C448005031
:10155000DC480068C0F381314FF0000031B102294E
:1015600004D0012901D1012000E00220704700BF12
:10157000B0B5184D00F032F82868C00628D41648D7
:101580004FF48041016004F0EBFE044604F0E8FEF5
:10159000001B2028FAD3286840F00800286004F0D7
:1015A000DFFE044604F0DCFE001BB0F5967FF9D3A5
:1015B000286840F01000286004F0D2FE044604F0D1
:1015C000CFFE001B0A28FAD3286840F002002860EA
:1015D000B0BD00BF8C4800505440005042F6E0625D
:1015E000904201DD1B230CE0A0F2D1724FF47A731C
:1015F00092FBF3F202EB420340F2EA329042B8BFB0
:101600000023B0B5174C1848226822FA03FC0133B6
:1016100022FA03F302681CF0010C22F0E00263F3EB
:10162000871242EA4C12026003D09A0701D50023C8
:1016300001E04FF44063C2680C4D22F47E521A431D
:10164000A942C26001D2231D04E0094AA31D9142B0
:1016500038BF631D19784A1C520842EA01214161D2
:10166000B0BD00BF200B04501048005081841E0004
:10167000A125260080B5012804D098B90A480C4954
:101680000160FEE740F2A000C2F2010000214172B9
:101690000020002100220023FFF71CFE024803491E
:1016A0000160FEE780BD00BF286800501EEDD1003C
:1016B0004EEBB40015480068C0F38300411E0E29AC
:1016C0004FF0000020D8DFE801F0080A0C0E1012DD
:1016D0001416181A1C1F1F1F1E00012014E00220E0
:1016E00012E0032010E004200EE005200CE00620AC
:1016F0000AE0072008E0082006E0092004E00A20AC
:1017000002E00B2000E00C20704700BF0068005092
:1017100044F27030C2F201000078012805D144F291
:101720007430C2F2010000687047FFF769BA00BF69
:101730002DE9F0410C2802D96FF0010022E00E469D
:101740000029F9D0044640F2A000C2F2010000EBEB
:10175000C408474657F8A40F10B16FF00B0011E012
:10176000154600F04BF920463E60C8F8A850FFF738
:1017700047F9164801220168A2401143016000F0B8
:1017800054F90020BDE8F081F0B581B00C284FF08D
:10179000000418D8054640F2A000C2F2010000EB98
:1017A000C506D6F8A470002F18BF012700F026F94F
:1017B000064801220168AA4091430160C6E9294414
:1017C00000F033F93C46204601B0F0BD1C680050E3
:1017D0000C2801D9002005E00349096821FA00F02E
:1017E00000F00100704700BF2068005010B96FF092
:1017F00001001CE00168007921B10028F7D14FF405
:1018000000400CE0032809D0022805D0012801D0AF
:10181000002004E0082002E0102000E01820124917
:1018200048F218030A689A43104308600020704782
:1018300010B96FF0010114E00B490968C1F3C0321F
:1018400002600A0701F0100106D519B103210171E8
:10185000002106E00121FAE709B10221F7E70021A2
:1018600001710846704700BF046C005010B96FF05A
:10187000010026E080B540F2A00EC2F2010E7246D1
:1018800052F8043F0360938883809379D2F898C01C
:10189000D2F89C2083710B4BC0F888C0C0F88C2014
:1018A0001A68C0F8902000220EEB8203DB6900EB7F
:1018B00082011F2A02F101028B60F5D30020BDE8EE
:1018C00080407047006C005048B91A485A21C160E6
:1018D000A521C1609621C1606921C1601BE041B2B0
:1018E000002902D56FF0010016E014210302B0FBBD
:1018F000F1F2B3FBF1F10F4BC9B259611A611968EA
:1019000000F07F0021F0FF0141EA400018605868B4
:1019100040F0110058600020704700BF094800687F
:10192000C00701D1002003E002480068C0F3460070
:10193000704700BF00C800500248016841F0020132
:101940000160704704C800500C4940B10C484FF486
:1019500080620260086840F0010008600BE00868DF
:1019600020F00100086007484FF480610160BFF378
:101970004F8FBFF36F8F0020704700BF20C800500B
:1019800000E100E080E100E0044908680A6800F036
:10199000010042F001020A60704700BF1CC80050FD
:1019A00070B508B9002427E0054614200E46FEF75E
:1019B000BCFE044600284FF00000F3D04FF08041F9
:1019C0004FF0FF3284E86100C4E9031200F016F81A
:1019D00044F27835C2F20105E86820B900F023F836
:1019E000C5E9034004E0014600680028FBD10C6013
:1019F00000F01BF800F02DF8204670BD0121EFF338
:101A0000108081F3108844F27831C2F201010A7E1D
:101A10000AB1002004E0002818BF0120486101201D
:101A200001320A76704704F035BE44F27830C2F2D3
:101A30000100017E09B900200AE001390A06017699
:101A4000F9D140690028F6D1002080F310880120E8
:101A5000704744F27830C2F20100016801228260CE
:101A600001B970474068084700B9704710B504468F
:101A7000FFF7C4FFE06840F00050E060FFF7D5FFDB
:101A8000BDE81040E5E7B0B510B96FF001000EE019
:101A900021F06045002DF8D00446FFF7AFFFE06865
:101AA0002843E060FFF7C1FFFFF7D3FF0020B0BD80
:101AB00070B544F27836C2F201060C46054606F1CE
:101AC000080014210BF069FDC6E9005470BD2DE932
:101AD000F04744F27835C2F2010505F10804FFF73A
:101AE000A2FF29694FF0000AA0EB010965684FF0D9
:101AF000FF384FF00007C4F800A0A060E5B3FFF77F
:101B00007DFF2869484504D8E86840F00040E86057
:101B100004E0411C02D0A0EB09002861EE68C5F882
:101B20000CA0FFF782FF3EB9FFF768FF28692E4639
:101B3000804588BF804619E0D5E901322846314604
:101B400098472861FFF75AFFB000EFD528683FB9E2
:101B5000264646F8040F2846FEF768FE002505E0F5
:101B600038602846FEF762FE3D463E462F46356801
:101B7000FFF75BFF002DC2D1FFF755FF2168A26878
:101B80000029A0EB0209B1D1C845AFD94046BDE854
:101B9000F08744F27830C2F201008068B0FA80F039
:101BA00040097047EFF3058070470000B0B58842E8
:101BB00001D9002247E0B0F1005FFAD33B4B9942D4
:101BC000F7D800F16042540B01F16042520B4FF024
:101BD000020C0CFA02F24FF0FF3E013A0EFA04F446
:101BE000224054B2B4F1FF3F13DC184A184C904223
:101BF000184D88BF0246A14238BF0C462C442A44E7
:101C0000A40A920A0CFA04F5013D0EFA02F22A40E7
:101C1000120415B2B5F1FF3F15DC0F4A904288BFA0
:101C200002460E48994238BF0B4611181844800AE4
:101C30000222890A02FA00F04FF0FF32013802FA5C
:101C400001F1084002061046B0BD00BF00E00020D0
:101C5000FFFF00200020FFDF00E001200020FEDF6A
:101C6000B0F1005F01D200201EE010498842FAD88E
:101C70000021C5F20501096800F1604011EA503FFA
:101C800001D0032010E00421C5F205010968400BD2
:101C9000014201D0022007E00821C5F205010968D0
:101CA0000840B0FA80F04009704700BFFFFF0120F4
:101CB00070B52C230128C5F2050304D14FF0180C90
:101CC00000209E460DE0022805D103F1040E4FF0DE
:101CD000100C002005E04FF0180C4FF0000E6FF0D4
:101CE000010012B9002400220BE0022A07D0012AC9
:101CF00002D06FF0010040E00022012401E0012445
:101D00000122D0BB11F0FF2F36D008B2B0F1FF3F57
:101D100003DC1A48084000F17F4111F0FF1F02D098
:101D20006FF0090029E011F47F4010D02546002C07
:101D300018BF0546002A18BF45EA0045DEF80060D6
:101D400040EA004026EA00002843CEF8000001F0F7
:101D50007F4030FA0CF00FD0D96D002C41EA00061C
:101D600008BF21EA0006DE65196E002A41EA000676
:101D700008BF21EA00061E66002070BDFF7FFF003D
:101D800010B51C468B4288BF0C46114622460BF00C
:101D9000E0FB204610BD10B51C468B4288BF0C46A8
:101DA000114622460BF0C8FB204610BD4FF6F071DD
:101DB000C2F200010B688A88C88809895BB1904229
:101DC00009D2914207D2884205D040F2AC10C2F24B
:101DD00001000121017744F29430C2F20100006851
:101DE0000121FFF750BE00BF2DE9F04381B040F262
:101DF000AC17C2F201073A7812B16FF00B0067E03E
:101E0000054641F6D7608946C1F221000021FFF75F
:101E1000C7FD44F29434C2F201042060FFF791F848
:101E2000387341F6C77041F6CD71C1F22100C1F29D
:101E3000210170220023FFF71BF80646386140F2AB
:101E400000004FF60078C2F20200C2F20108411E03
:101E50004046FFF7ABFE0146B86120687D60C7F8D9
:101E6000089008B3387BF8B136B3F1B14FF6F07093
:101E7000C2F2010000224FF6F073C0E90022826036
:101E80006FEA0802C2F201031A44C0F8008082809F
:101E900002200222FFF70CFFD0B96948042101603B
:101EA00001203870002013E026B13046FFF725F8F6
:101EB00000203861387B18B1FFF767F800203873CD
:101EC000206818B1FFF7D0FD002020606FF00300FC
:101ED00001B0BDE8F08370B582B088000ED540F245
:101EE000AC14C2F201042069FFF707F8207BFFF76A
:101EF0004CF8204620210BF050FB60E0C8075ED074
:101F00004FF6F070C2F2010001688288C48805892A
:101F10004FF60070C2F20100814235D14FF6F071E8
:101F2000C343C2F201010B449BB29A422CD19C42A2
:101F30002AD29D4228D244F29832C2F2010213887A
:101F40009D4221D0081AE14340F2AC162944C2F266
:101F5000010615800844A54298BF411E7268012001
:101F60008DF80000ADF8021012B1B16868469047D4
:101F7000FFF744FDA54205D1307B00214FF0FF3231
:101F8000FFF724F8FFF751FD4FF6F071C2F20001A0
:101F90000B688A88C88809898BB190420FD2914218
:101FA0000DD288420BD040F2AC10C2F20100426860
:101FB00000218DF8041012B1816801A890474FF0FC
:101FC000FF3002B070BD0120704700BFB0B5A8B9A6
:101FD00040F2AC14C2F20104207801280ED141F67F
:101FE000D760C1F2210000210025FFF7D9FC44F29F
:101FF0009431C2F20101086008B92570B0BD4FF6F6
:10200000F0704FF60071C2F20100C2F201014FF60A
:10201000F072C0E9005585600160C943C2F2010257
:102020001144818044F29830C2F20100A169058018
:1020300002200222FFF73CFE014804210160B0BDEE
:1020400000E100E0064804210160BFF34F8F44F235
:102050009430BFF36F8FC2F201000068FFF704BD38
:1020600080E100E02DE9F04F85B040F2AC12C2F201
:1020700001021278012A01D0002471E006460028EE
:10208000FAD089460029F7D04FF6F077C2F201075F
:102090003A684FF60078B988FD883889C2F201089D
:1020A0004245E9D14FF6F0736FEA0802C2F201032C
:1020B00002EB030B1FFA8BFA5145DDD15545DBD2FC
:1020C00050454FF000044BD2E9430144A84298BF69
:1020D00051444A464945C8BF01240291D8BF0A4627
:1020E000ABEB05011FFA82FC8BB2CDF810C0039355
:1020F0009C45CDE9001238BF114608EB05008AB2B5
:1021000031460BF026FADDE90310884207D8019822
:10211000284481B2B1EB0A0618BF06460DE0DDE99E
:1021200000203144821A90B25045164638BF93467B
:102130001FFA8BF240460BF00CFADDF80880002CF9
:1021400018BFC846FFF75AFC0120FE8000F00CF8CB
:1021500008B9444602E04FF0FF34FD80FFF765FC0C
:10216000204605B0BDE8F08F2DE9F04140F2AC16F5
:10217000C2F2010628B1307B01214FF0FF32FEF799
:1021800025FF1C4D686840F003006860FFF74BFCBA
:10219000044640F2011740F2DC5828683840B0F598
:1021A000807F05D1D5F8000400F00300032804D097
:1021B000FFF739FC001B4045EFD32868C0050BD55D
:1021C000D5F8000400F00300032805D10A490120D6
:1021D00008600020086007E0307B00214FF0FF32EC
:1021E000FEF7F4FE6FF00800696821F003016960F2
:1021F000BDE8F0810068005000D800502DE9F041A2
:1022000011B96FF0010041E00028FAD040F2AC189B
:10221000C2F201080C4698F81C10A9B34FF6F075ED
:10222000C2F200052968AF88EA882E8961B3BA42F4
:102230002AD2B74228D9B24238BF3A46921BB4F8E4
:1022400000C093B29C4538BF62461304228001D17E
:1022500000201BE092B231440BF07BF9208830441F
:1022600081B2CC1B18BF0446A6B2FFF7C7FBE888B3
:10227000864202D1002088F81C00FFF7D6FB002020
:102280002C81BDE8F0416FE700202080BDE8F0819F
:10229000B0B540F2CC14C2F201042078002851D12C
:1022A00042F2533042F25731C1F22100C1F2210112
:1022B00080220023FEF7DCFD0028E06042D0FEF71C
:1022C00040FE2075A8B301214FF0FF32FEF77EFEDD
:1022D00000F07AFA68BB42F2A730C1F22100002177
:1022E000FFF782FD28BB42F2B130C1F2210000218C
:1022F000FFF756FB44F29C35C2F20105C5F8900188
:10230000A8B14FF60070C2F20100411E4FF6000066
:10231000C2F20100FFF74AFC0146206102200222BE
:10232000FFF7C6FC88B1D5F89001FFF79DFBFFF7DA
:1023300089FE00F06DFAE068FEF7DFFD207D08B150
:10234000FEF723FE4FF0FF30B0BD012020700020CB
:10235000FAE70120704770B520BB40F2CC14C2F2FE
:1023600001042078F0B100F02FFAC8B942F2B13080
:10237000C1F2210000210025FFF712FB44F29C3638
:10238000C2F201062169C6F8900102200222FFF77D
:102390008FFCD6F8900128B900F03AFA257001E0D8
:1023A0000020207070BD007800B1704700204DE023
:1023B000F0B581B044F29C34C2F2010494F88C115F
:1023C00094F88D01884220D004F5C675C0B200EBA8
:1023D000400004EB800636F80C0F374637F8021F32
:1023E000D6E9012300F085FBB2681AB1308839883C
:1023F00000F00FF868782978421CD0B2203818BF56
:102400001046C2B28A426870E0D14FF0FF3001B08E
:10241000F0BDB0B584B048F20203ADF80430042337
:10242000002401ADADF80A30ADF80600ADF8081093
:102430000392C4F10C01281989B2FFF713FE00289A
:1024400002D404440C2CF4D304B0B0BD2DE9F04FF9
:1024500089B044F25471C2F2010144F29C3509681A
:10246000C2F2010540F2CC1805F28D1A00260DF1DA
:1024700010090DF10E0BC2F2010800240190089121
:102480002878022800F0CB80012835D000284FD1D1
:102490006888C0F108012844ADF80E1000F5CC7032
:1024A0005946FFF7ABFEC0BBBDF80E00A8B3698864
:1024B000084481B2082968803AD3BAF80B00022890
:1024C00009D0032805D048F20101884211D10C201F
:1024D00002E0132000E010202978ADF80E00022958
:1024E00026D0BAF811100831814202D30120287099
:1024F000ABE002202870A8E0BAF811006988401A01
:102500000830ADF80E00681800F5CC705946FFF79A
:1025100075FE10B9BDF80E0000B999E06988014454
:10252000BAF811008AB200F108039342698000D919
:102530008BE0BAF80B1047466FF3DF31032955D013
:10254000022911D001290BD1019848B1A888BAF805
:102550000D10884204D1E888BAF80F10884200D0E4
:1025600071E001242C726EE09AF8001095F88C014D
:10257000E1B91F281DD17A686AB1BAF80D000121AE
:10258000ADF80A00BAF80F008DF80810B968ADF878
:102590000C0002A89047D5F8A421002A53D0BAF81D
:1025A0000D00BAF80F10FFF734FF4CE001398142FB
:1025B000E1D0BAF80D1000EB400205EB82029181E8
:1025C000BAF80F100130D181DAF813101161DAF87E
:1025D00017105161C1B2203918BF0146DAF8030063
:1025E00085F88C110121FFF74EFA2CE0DAF817106C
:1025F0000B31814227D87A682AB3DAF81300012810
:1026000021D1BAF80D00B968ADF80A00BAF80F0088
:102610008DF80860ADF80C0002A8904713E0102078
:10262000ADF80E0048465946FFF7E8FD80B9BDF801
:102630000E0068B169880844BAF8111082B20831F6
:102640009142688001D82E706E80E0073FF418AF89
:1026500044F25470C2F2010000680899401A02D195
:1026600009B0BDE8F08F0AF065FFB0B540F2CC14B8
:10267000C2F201042078D0B1E068FEF73EFC207D74
:10268000FEF783FC44F29C35C2F20105D5F89001B7
:10269000FFF7EAF900F0BCF8FFF7D4FC28464FF446
:1026A000D6710AF07AFF204618210AF076FFB0BDF5
:1026B0002DE9F04184B044F29C35C2F2010525F8C1
:1026C000040F0127ADF8020008200026ADF80070C5
:1026D000ADF80410ADF80600CDE9022369802E7133
:1026E000FFF7A1F904466F4641F28838C6F11001A0
:1026F000B81989B2FFF7B6FC002819D406440F2E8A
:1027000004D8FFF790F9001B4045EFD3287960B952
:1027100041F28736FFF787F9001BB04208D8012045
:10272000FFF794FE28790028F4D0D5F89C0104E046
:1027300028790028F9D14FF0FF3004B0BDE8F081CE
:102740004FF60001C2F2010108444FF60071C2F2D7
:102750000101013988420BD844F29C30C2F20100D9
:1027600090F8940120B94FF60000C2F2010000E099
:102770000020704744F29C30C2F20100002180F832
:102780009411704760B140F2CC12C2F2010253685A
:1027900013B14FF0FF300AE0C2E90101002006E06A
:1027A00040F2CC11C2F201010020C1E901007047E2
:1027B00040F2CC11C2F201010A7D80F00101104605
:1027C0004FF0FF32FEF702BC10B544F24854C2F29B
:1027D00001042068C8B90820FDF7A7FF206090B168
:1027E000102141604FF4C070FDF79FFF2168086021
:1027F0002168086838B1496801EB4101C9000AF055
:10280000CCFE002003E000F003F84FF0FF3010BDD5
:1028100010B544F24854C2F20104206838B100688F
:10282000FEF704F82068FEF701F80020206010BDD4
:102830002DE9F04F81B044F24856C2F20106154628
:1028400032681F468946824632B9FFF7BDFF3268BB
:1028500012B94FF0FF3090E0BAF1000FF9D0B9F1A2
:10286000000FF6D0002DF4D0A8680028F1D0D2F8DF
:1028700004B0BBF1000F3CD0D2F800C00024D84611
:10288000002202EB42030CEBC303CFB1B3F804E028
:1028900029888E4514D1B3F806E069888E450FD19A
:1028A000D96881420CD1D3F810E0E9688E4507D190
:1028B000D3F808E069688E4502D190461C460CE0CA
:1028C000196831B9002C04BF90461C4601D1002F75
:1028D000F3D001325A45D4D35CB1201D29461022D1
:1028E000C4F800900AF035FE00202075CAF8008078
:1028F00043E00BEB4B044FEA04184046FDF715FF8D
:102900000028A6D0074630684FEA4B010091D0E975
:10291000001202EB4200B8EBC00F28BF4FEAC0081C
:10292000384642460AF015FE3068416801EB410026
:10293000C1EB4B0101EB410107EBC000C9000AF0FC
:102940002CFE30680068FDF771FF3068009A076060
:1029500030680168426041F834903668102231686E
:1029600001EBC400043029460AF0F3FD3068CAF8D0
:1029700000B000EBC4010020087501B0BDE8F08F85
:102980002DE9F04744F24855C2F2010590462A6805
:1029900012B94FF0FF303EE0064650688946B0421B
:1029A0002AD2741C04EB44004FEAC00A5046FDF7DB
:1029B000BCFE0028EDD007462868D0E9001202EBE3
:1029C0004200C2003846524588BF52460AF0C1FD57
:1029D0002868416801EB4100611A01EB410107EBF6
:1029E000C000C9000AF0D9FD28680068FDF71EFF85
:1029F000286807602A685460106806EB460140F8B2
:102A0000319028681022006800EBC1000430414674
:102A10000AF09FFD0020BDE8F08744F24852C2F260
:102A20000102126812B94FF0FF300DE05368834283
:102A3000F9D9126800EB400052F83030002BF2D088
:102A400002EBC00081600020704780B544F248521C
:102A5000C2F20102126812B94FF0FF3012E053685F
:102A60008342F9D9126800EB400052F83030002B55
:102A7000F2D002EBC000021D0846114610220AF0F7
:102A800068FD002080BDB0B5944644F24852C2F2C1
:102A900001021268CAB18E465168B1B112680024B1
:102AA00004EB440302EBC3039D88854205D1DD8816
:102AB000754502D19D68654503D001348C42EFD342
:102AC00003E0184618210AF068FDB0BD80B544F255
:102AD0004851C2F20101096851B14A68824207D9DE
:102AE000096800EB400001EBC00018210AF055FD19
:102AF00080BD2DE9F04144F24857C2F201073E681B
:102B0000C6B17468B4B135688046002000EB400659
:102B100005EBC607BE463EF804CFC44507D1FF8883
:102B20008F4204D155F836C0BCF1000F04D10130FA
:102B3000A042EBD3BDE8F08192B27146BDE8F0410E
:102B4000604744F24852C2F20102126842B153682F
:102B5000834205D9126800EB400002EBC00001750A
:102B60007047B0B544F24851C2F201010C68A4B1FB
:102B70000146206888B189B9606870B10025206875
:102B800005EB450100EBC100017D11B918210AF0E8
:102B900004FD606801358542F1D3B0BD616801EB89
:102BA0004101C9000AF0F9FCB0BD10B584B00C2A8F
:102BB0000AD3986869461C46FFF747FF20B9D4E955
:102BC0000001DDE90232984704B010BD10B584B0B1
:102BD000102A0BD3D86869461C46FFF736FF28B980
:102BE00020682179A268DDE90243A04704B010BD46
:102BF00010B584B0082A09D3586869461C46FFF707
:102C000024FF18B92068DDE90221904704B010BD07
:102C1000F0B585B0074600200090082016460C4607
:102C2000FFF78EFD10B94FF0FF342DE00546076029
:102C3000466094B14FF001100190002002A951C1EB
:102C400042F6CD31C1F22101684601AA0023FFF707
:102C5000EFFD10B14FF0FF340FE0009802216860E3
:102C6000012008222B46FFF723FD002C044604D048
:102C7000002C02DC0098FFF729FF44F29C30C2F2DE
:102C80000100002180F89411204605B0F0BD10B578
:102C900004460420FFF754FD90B103460460012070
:102CA00003210422FFF704FD01200121002200245A
:102CB000FFF7E9FE44F29C30C2F2010080F8944133
:102CC00010BD70B5064610200C46FFF739FD10B94F
:102CD0004FF0FF3522E0054606604CB900206860E1
:102CE0000020002110222B46FFF7E2FC05460EE0F3
:102CF00005F1080068600020002110222B46FFF734
:102D0000D7FC69680546204606220AF022FC44F2F8
:102D10009C30C2F20100002180F89411284670BD59
:102D20002DE9F04786B007460020019034209846F0
:102D300091460E46FFF704FD10B94FF0FF3049E011
:102D40000DF1380A0446119D9AE80304C4E900769F
:102D5000C4F8089084F80C80607339B104F1200045
:102D6000062220610AF0F5FB282002E00020206105
:102D70002020DDE9127684F814A035B120442946DC
:102D80000C22A0610AF0E5FB01E00020A061E661F1
:102D90008FB1002045F29141CDE90200C1F221013D
:102DA00001A802AA0123CDE90476FFF741FD10B185
:102DB0004FF0FF3007E001980121E061002034224C
:102DC0002346FFF775FC44F29C31C2F20101002258
:102DD00081F8942106B0BDE8F08710B504460420C0
:102DE000FFF7AEFC70B1034604600020022104220C
:102DF0000024FFF75DFC44F29C31C2F2010181F82E
:102E0000944110BD4FF0FF3010BD70B506460C2048
:102E100014460D46FFF794FC80B10346C0E90065F7
:102E20000481002003210C220024FFF741FC44F21E
:102E30009C31C2F2010181F8944170BD4FF0FF3026
:102E400070BD70B506460C2014460D46FFF778FCA1
:102E500080B10346C0E900650481002004210C22F2
:102E60000024FFF725FC44F29C31C2F2010181F8F5
:102E7000944170BD4FF0FF3070BD2DE9F04186B038
:102E800007460020019018201D4616468846FFF789
:102E900057FC10B94FF0FF3032E00446DDE90F1067
:102EA0000DF1300C9CE80C10276084F80480C4E914
:102EB00002652274637484F812C0606189B10022D3
:102EC000CDE90222CDE9041045F29141C1F2210180
:102ED00001A802AA0123FFF7ABFC10B14FF0FF30AD
:102EE00007E0019805216061002018222346FFF7C2
:102EF000DFFB44F29C31C2F20101002281F89421EF
:102F000006B0BDE8F08110B504460420FFF718FCB8
:102F100070B1034604600020062104220024FFF75C
:102F2000C7FB44F29C31C2F2010181F8944110BD0B
:102F30004FF0FF3010BDF0B581B007462C2015468C
:102F40000E46FFF7FDFBE0B10446076046603DB169
:102F500004F10C0029461F22A0600AF0FAFA01E0F1
:102F60000020A060002007212C2223460024FFF728
:102F70009FFB44F29C31C2F2010181F8944101B0FF
:102F8000F0BD4FF0FF3001B0F0BDF0B581B00746A5
:102F90002C2015460E46FFF7D3FBE0B10446076030
:102FA00046603DB104F10C0029461F22A0600AF0E2
:102FB000D0FA01E00020A06000200A212C22234644
:102FC0000024FFF775FB44F29C31C2F2010181F845
:102FD000944101B0F0BD4FF0FF3001B0F0BD2DE9DC
:102FE000F04186B007460020019028201D46164675
:102FF0008846FFF7A5FB10B94FF0FF303FE00446CD
:10300000076080F8048046B104F1140031460822BC
:10301000A0600AF09EFA1C2002E00020A0601420AC
:10302000DDE90C7635B1204429460922E0600AF03A
:1030300090FA01E00020E06026618FB1002045F2A7
:103040009141CDE90200C1F2210101A802AA0123A8
:10305000CDE90476FFF7ECFB10B14FF0FF3007E04D
:1030600001980D212061002028222346FFF720FB34
:1030700044F29C31C2F20101002281F8942106B091
:10308000BDE8F08110B504460420FFF759FB70B18C
:103090000346046000200E2104220024FFF708FBF1
:1030A00044F29C31C2F2010181F8944110BD4FF00D
:1030B000FF3010BD70B5064610200C46FFF740FBF0
:1030C00010B94FF0FF3522E0054606604CB90020EC
:1030D000686000200F2110222B46FFF7E9FA054611
:1030E0000EE005F10800686000200F2110222B4639
:1030F000FFF7DEFA69680546204606220AF029FA3B
:1031000044F29C30C2F20100002180F8941128465C
:1031100070BD70B5064610200C46FFF711FB10B9C4
:103120004FF0FF3522E0054606604CB9002068608C
:103130000020102110222B46FFF7BAFA05460EE0B8
:1031400005F1080068600020102110222B46FFF7CF
:10315000AFFA69680546204606220AF0FAF944F2F9
:103160009C30C2F20100002180F89411284670BD05
:10317000F0B581B00746242014460E46FFF7E0FA6A
:1031800010B94FF0FF352EE00546076046B105F156
:103190000C003146102268600AF0DBF91C2002E0C6
:1031A000002068600C204CB90020A860002011218C
:1031B00024222B46FFF77CFA05460DE02844A86040
:1031C0000020112124222B46FFF772FAA968054638
:1031D000204606220AF0BDF944F29C30C2F20100FA
:1031E000002180F89411284601B0F0BD2DE9F0418E
:1031F00004462020984616460F46FFF7A1FA08B964
:1032000000201CE0054604603FB105F1100039467E
:10321000102268600AF09DF901E00020686000203B
:10322000122120222B46AE60A5F80C800024FFF767
:103230003FFA44F29C31C2F2010181F89441C0B2DC
:10324000BDE8F08170B506460C2014460D46FFF728
:1032500077FA80B10346C0E900650481002013219C
:103260000C220024FFF724FA44F29C31C2F201013F
:1032700081F8944170BD4FF0FF3070BD2DE9F04FE3
:1032800081B0C1EBC10B82465FEA8B701C461646CB
:103290008946584603D00BF1040020F0030000F1EA
:1032A00014084046FFF74CFA10B94FF0FF3538E0EC
:1032B0000546C0F800A0C0F804907EB10BF11007DD
:1032C00005F11000B907A86003D00BF1140121F03B
:1032D000030731465A460AF03CF902E00020102765
:1032E000A86074B1E819E8600020142142462B461A
:1032F000FFF7DEF9E9680546204604220AF029F9BD
:1033000008E00020E8600020142142462B46FFF729
:10331000CFF9054644F29C30C2F20100002180F84A
:103320009411284601B0BDE8F08F2DE9F04F81B02F
:10333000C1EBC10B82465FEA8B701C46164689467C
:10334000584603D00BF1040020F0030000F11408EC
:103350004046FFF7F5F910B94FF0FF3538E0054664
:10336000C0F800A0C0F804907EB10BF1100705F181
:103370001000B907A86003D00BF1140121F0030776
:1033800031465A460AF0E5F802E000201027A8600E
:1033900074B1E819E8600020152142462B46FFF77A
:1033A00087F9E9680546204604220AF0D2F808E0C9
:1033B0000020E8600020152142462B46FFF778F9EF
:1033C000054644F29C30C2F20100002180F89411BD
:1033D000284601B0BDE8F08F70B506460C200C46BB
:1033E000FFF7AEF910B94FF0FF3522E00546066051
:1033F0004CB900206860002016210C222B46FFF7F4
:1034000057F905460EE005F1080068600020162116
:103410000C222B46FFF74CF969680546204604222A
:103420000AF097F844F29C30C2F20100002180F8C3
:103430009411284670BDB0B5054608200C46FFF72C
:103440007FF978B103460560047100201721082236
:103450000024FFF72DF944F29C31C2F2010181F8FA
:103460009441B0BD4FF0FF30B0BDF0B585B0074618
:1034700000200090082016460C46FFF761F910B9AD
:103480004FF0FF342BE00546076046608CB100200A
:103490000190012002A951C145F29141C1F22101DF
:1034A000684601AA0023FFF7C3F910B14FF0FF34BB
:1034B0000EE0009818216860002008222B46FFF7D4
:1034C000F7F8002C044603D014B10098FFF7FEFA79
:1034D00044F29C30C2F20100002180F89411204691
:1034E00005B0F0BDB0B504460420FFF729F910B9C6
:1034F0004FF0FF3414E00346046000201921042239
:103500000025FFF7D5F8044620B90020002101224C
:10351000FFF7B9FA44F29C30C2F2010080F89451EE
:103520002046B0BD2DE9F04786B0824600200190CC
:1035300020201D4690468946FFF702F910B94FF04A
:10354000FF3034E0DDE90E670446C0E900A9A0F8C9
:1035500008803DB104F1140029460B22E06009F017
:10356000F8FF01E00020E06027618EB1002045F205
:103570009141CDE90200C1F2210101A802AA012373
:10358000CDE90467FFF754F910B14FF0FF3007E0C1
:1035900001981A212061002020222346FFF788F895
:1035A00044F29C31C2F20101002281F8942106B05C
:1035B000BDE8F0872DE9F04786B0824600200190F3
:1035C00048201D4690468946FFF7BAF810B94FF0DB
:1035D000FF3034E0DDE90E670446C0E900A9A0F839
:1035E00008803DB104F1140029463422E06009F05E
:1035F000B0FF01E00020E06027618EB1002045F2BD
:103600009141CDE90200C1F2210101A802AA0123E2
:10361000CDE90467FFF70CF910B14FF0FF3007E078
:1036200001981B212061002048222346FFF740F823
:1036300044F29C31C2F20101002281F8942106B0CB
:10364000BDE8F0872DE9F041064648201D4690462A
:103650000F46FFF775F8F0B10446C0E90067A0F81F
:1036600008803DB104F1100029463822E06009F0DD
:1036700070FF01E00020E06000201C21482223466A
:103680000024FFF715F844F29C31C2F2010181F8E1
:103690009441BDE8F0814FF0FF30BDE8F0812DE9A5
:1036A000F04786B082460020019034201D469046A7
:1036B0008946FFF745F810B94FF0FF3034E0DDE9F7
:1036C0000E670446C0E900A9A0F808803DB104F1E6
:1036D000140029461E22E06009F03BFF01E00020B3
:1036E000E06027618EB1002045F29141CDE90200F2
:1036F000C1F2210101A802AA0123CDE90467FFF765
:1037000097F810B14FF0FF3007E001981D212061BC
:10371000002034222346FEF7CBFF44F29C31C2F254
:103720000101002281F8942106B0BDE8F0872DE95F
:10373000F04186B0054600200190102098461646BC
:103740000F46FEF7FDFF10B94FF0FF302CE0DDE92A
:103750000C2104460E98C4E90057268184F80A809B
:10376000E272E06089B10022CDE90222CDE90410C5
:1037700045F29141C1F2210101A802AA0123FFF7FC
:1037800057F810B14FF0FF3007E001981E21E060BC
:10379000002010222346FEF78BFF44F29C31C2F238
:1037A0000101002281F8942106B0BDE8F0812DE9E5
:1037B000F04786B082460020019048201D46904682
:1037C0008946FEF7BDFF10B94FF0FF3034E0DDE968
:1037D0000E670446C0E900A9A0F808803DB104F1D5
:1037E000140029463422E06009F0B3FE01E0002015
:1037F000E06027618EB1002045F29141CDE90200E1
:10380000C1F2210101A802AA0123CDE90467FFF753
:103810000FF810B14FF0FF3007E001981F21206131
:10382000002048222346FEF743FF44F29C31C2F2B7
:103830000101002281F8942106B0BDE8F08770B53F
:1038400006460C200D46FEF77BFFD0B1044606600D
:103850003DB104F1080029460422606009F079FEB8
:1038600001E000206060002020210C22234600247B
:10387000FEF71EFF44F29C31C2F2010181F894412F
:1038800070BD4FF0FF3070BD10B504460420FEF748
:1038900057FF70B103460460002021210422002458
:1038A000FEF706FF44F29C31C2F2010181F8944117
:1038B00010BD4FF0FF3010BDB0B5054608200C46D6
:1038C000FEF73EFF78B10346056004710020222117
:1038D00008220024FEF7ECFE44F29C31C2F2010102
:1038E00081F89441B0BD4FF0FF30B0BD70B50646D1
:1038F0000C200D46FEF724FF10B94FF0FF301EE0FC
:103900000446066045B900206060002023210C2297
:103910002346FEF7CDFE0BE004F1080060600020B6
:1039200023210C222346FEF7C3FE61680978297023
:1039300044F29C31C2F20101002281F8942170BD51
:103940002DE9F041064614201C4690460F46FEF72E
:10395000F7FE10B94FF0FF3021E00546C0E90067DF
:10396000A0F8088044B90020E86000202421142237
:103970002B46FEF79DFE0BE005F11000E8600020ED
:10398000242114222B46FEF793FEE9680978217062
:1039900044F29C31C2F20101002281F89421BDE879
:1039A000F0812DE9F041064614201C4690460F4652
:1039B000FEF7C6FE10B94FF0FF3023E00546C0E920
:1039C0000067A0F8088044B90020E86000202521A5
:1039D00014222B46FEF76CFE0DE005F11000E860A6
:1039E0000020252114222B46FEF762FEE9680A78A2
:1039F00049782270617044F29C31C2F201010022C8
:103A000081F89421BDE8F081F0B581B007461C2013
:103A100014460E46FEF794FE10B94FF0FF3523E032
:103A20000546076086804CB90020A860002026214A
:103A30001C222B46FEF73CFE05460EE005F10C006D
:103A4000A860002026211C222B46FEF731FEA96823
:103A5000054620460E2209F07CFD44F29C30C2F25D
:103A60000100002180F89411284601B0F0BD2DE935
:103A7000F041064618201C4690460F46FEF760FEB1
:103A800010B94FF0FF3525E00546C0E90067A0F802
:103A900008804CB90020E8600020272118222B461E
:103AA000FEF706FE05460EE005F11000E860002076
:103AB000272118222B46FEF7FBFDE9680546204624
:103AC000062209F046FD44F29C30C2F201000021BA
:103AD00080F894112846BDE8F0812DE9F047804632
:103AE0005C20994616460F46FEF72AFE10B94FF0A5
:103AF000FF387FE00446C0F8008047B104F11C00A5
:103B000039461022606009F024FD2C2702E00020D5
:103B10001C2760603EB1E01931461022A0601037CA
:103B200009F017FD01E00020A060DDF820A0B9F148
:103B3000000F0CD007F11000E1198207E16001D1FC
:103B4000074606E007F1140000F0FC0701E0002042
:103B5000E060099DBAF1000F0AD0B81CE119820794
:103B6000216101D1074605E0B81D20F0030701E0FF
:103B7000002020610A9E55B1B81CE11982076161DD
:103B800001D1074605E0B81D20F0030701E0002041
:103B900060610EB1E01900E00020A0610020282142
:103BA0005C222346FEF784FDB9F1000F804604D065
:103BB000E1684846102209F0CCFCBAF1000F06D0AB
:103BC0002069417800788AF801108AF8000025B150
:103BD0006069417800786970287026B1A169304623
:103BE000082209F0B6FC44F29C30C2F20100002128
:103BF00080F894114046BDE8F0872DE9F041054674
:103C00005020984616460F46FEF79AFD10B94FF021
:103C1000FF3451E00446056047B104F1180039460D
:103C20001022606009F095FC282502E0002018258C
:103C30006060069F3EB1601931461022A0601035C9
:103C400009F087FC01E00020A060079EA4F80C802A
:103C500087B105F1080160198A07206101D10D467D
:103C600003E005F10C0101F0FC053946082209F0DA
:103C700070FC01E00020206176B1601960610020D5
:103C8000292150222346FEF713FD61690446304680
:103C9000102209F05EFC08E000206061002029216C
:103CA00050222346FEF704FD044644F29C30C2F243
:103CB0000100002180F894112046BDE8F0812DE933
:103CC000F04381B007463020984691460E46FEF7F5
:103CD00037FD10B94FF0FF3433E0089D044607600C
:103CE00046B104F1100031461022606009F031FC49
:103CF000202002E0002060601020A4F80890A4F8C2
:103D00000A804DB90020E06000202A21302223469D
:103D1000FEF7CEFC04460DE02044E06000202A219E
:103D200030222346FEF7C4FCE168044628461022F0
:103D300009F00FFC44F29C30C2F20100002180F82F
:103D40009411204601B0BDE8F083F0B581B007467C
:103D500014201C4615460E46FEF7F2FCC0B1034681
:103D60000898DDE90621C3E900769A81D981188295
:103D700000202B2114221D815C810024FEF798FC79
:103D800044F29C31C2F2010181F8944101B0F0BDCE
:103D90004FF0FF3001B0F0BD2DE9F04105461C2089
:103DA000984616460F46FEF7CBFCF8B10699044636
:103DB000C0E90057068180F80A8031B104F1100093
:103DC0000C22E06009F0C5FB01E00020E06000206B
:103DD0002C211C2223460024FEF76AFC44F29C316D
:103DE000C2F2010181F89441BDE8F0814FF0FF304B
:103DF000BDE8F0812DE9F04106461C201D469046A5
:103E00000F46FEF79DFCF0B10446C0E90067A0F83C
:103E100008803DB104F1100029460C22E06009F051
:103E200098FB01E00020E06000202D211C222346A9
:103E30000024FEF73DFC44F29C31C2F2010181F8FE
:103E40009441BDE8F0814FF0FF30BDE8F081F0B55E
:103E500081B007460C201C4615460E46FEF770FC46
:103E600090B10346C0E900760581448100202E21EF
:103E70000C220024FEF71CFC44F29C31C2F201012A
:103E800081F8944101B0F0BD4FF0FF3001B0F0BDBA
:103E90002DE9F041064614201C4690460F46FEF7D9
:103EA0004FFC10B94FF0FF3023E00546C0E9006732
:103EB000A0F8088044B90020E86000202F211422D7
:103EC0002B46FEF7F5FB0DE005F11000E860002041
:103ED0002F2114222B46FEF7EBFBE9680A7849787C
:103EE0002270617044F29C31C2F20101002281F81B
:103EF0009421BDE8F081B0B5054608200C46FEF7D8
:103F00001FFC78B10346C0E900540020302108228C
:103F10000024FEF7CDFB44F29C31C2F2010181F88E
:103F20009441B0BD4FF0FF30B0BDB0B5054608209C
:103F30000C46FEF705FC78B10346056004710020CD
:103F4000312108220024FEF7B3FB44F29C31C2F277
:103F5000010181F89441B0BD4FF0FF30B0BD2DE9B3
:103F6000F04F81B08246272001FB00FB5FEA8B7097
:103F70001C4616468946584603D00BF1040020F033
:103F8000030000F114084046FEF7DAFB10B94FF0C9
:103F9000FF3538E00546C0F800A0C0F804907EB1B7
:103FA0000BF1100705F11000B907A86003D00BF161
:103FB000140121F0030731465A4609F0CAFA02E01B
:103FC00000201027A86074B1E819E86000203221B1
:103FD00042462B46FEF76CFBE96805462046042264
:103FE00009F0B7FA08E00020E860002032214246DC
:103FF0002B46FEF75DFB054644F29C30C2F2010001
:10400000002180F89411284601B0BDE8F08F2DE919
:10401000F04F81B08246272001FB00FB5FEA8B70E6
:104020001C4616468946584603D00BF1040020F082
:10403000030000F114084046FEF782FB10B94FF070
:10404000FF3538E00546C0F800A0C0F804907EB106
:104050000BF1100705F11000B907A86003D00BF1B0
:10406000140121F0030731465A4609F072FA02E0C2
:1040700000201027A86074B1E819E86000203321FF
:1040800042462B46FEF714FBE9680546204604220B
:1040900009F05FFA08E00020E86000203321424682
:1040A0002B46FEF705FB054644F29C30C2F20100A8
:1040B000002180F89411284601B0BDE8F08F70B55A
:1040C00006460C200C46FEF73BFB10B94FF0FF35BF
:1040D00022E0054606604CB90020686000203421CB
:1040E0000C222B46FEF7E4FA05460EE005F1080027
:1040F0006860002034210C222B46FEF7D9FA69684B
:1041000005462046042209F024FA44F29C30C2F20B
:104110000100002180F89411284670BDF0B581B0EF
:1041200007460C201C4615460E46FEF709FBF0B16B
:104130000346194601F8055F2A0ECA702A0C069834
:104140008A70290A9971210A9972D8720020352142
:104150000C221F601E715C720024FEF7A9FA44F263
:104160009C31C2F2010181F8944101B0F0BD4FF0E1
:10417000FF3001B0F0BDF0B581B0074610201C46FD
:1041800015460E46FEF7DCFAA0B103460698C3E9D1
:10419000007698810020362110221D815C81002448
:1041A000FEF786FA44F29C31C2F2010181F8944193
:1041B00001B0F0BD4FF0FF3001B0F0BD70B5064664
:1041C000082014460D46FEF7BBFA80B10346066090
:1041D0008580C4800020372108220024FEF768FA79
:1041E00044F29C31C2F2010181F8944170BD4FF05C
:1041F000FF3070BDF0B581B00746142014460D465F
:10420000FEF79EFA10B94FF0FF3028E0064607602F
:1042100025B106F10C007060102002E000207060F3
:104220000C200CB1304400E00020B06000203821A8
:1042300014223346FEF73CFA25B171684A780978B2
:104240006A70297024B1B1684A7809786270217067
:1042500044F29C31C2F20101002281F8942101B0A4
:10426000F0BD70B506460C2014460D46FEF768FA00
:1042700080B10346C0E900658460002039210C222A
:104280000024FEF715FA44F29C31C2F2010181F8D4
:10429000944170BD4FF0FF3070BDF0B581B007465E
:1042A00014201C4615460E46FEF74AFAA0B10346F6
:1042B0000698C3E900761D81C3E9034000203A2136
:1042C00014220024FEF7F4F944F29C31C2F20101F9
:1042D00081F8944101B0F0BD4FF0FF3001B0F0BD66
:1042E0002DE9F04381B006461C201C4690468946C5
:1042F000FEF726FA10B94FF0FF3028E0089F054678
:10430000C0E90069A0F8088024B105F11400E86054
:10431000182002E00020E86014200FB1284400E0DB
:104320000020286100203B211C222B46FEF7C0F90B
:1043300014B1E9680978217017B1296909783970D1
:1043400044F29C31C2F20101002281F8942101B0B3
:10435000BDE8F08370B506460C200C46FEF7F0F978
:1043600010B94FF0FF3522E0054606604CB9002039
:10437000686000203C210C222B46FEF799F9054687
:104380000EE005F10800686000203C210C222B465D
:10439000FEF78EF9696805462046042209F0D9F82F
:1043A00044F29C30C2F20100002180F894112846AA
:1043B00070BD70B506460C200C46FEF7C1F910B969
:1043C0004FF0FF3522E0054606604CB900206860DA
:1043D00000203D210C222B46FEF76AF905460EE02F
:1043E00005F10800686000203D210C222B46FEF7F5
:1043F0005FF9696805462046042209F0AAF844F2EC
:104400009C30C2F20100002180F89411284670BD52
:104410002DE9F041074634201C4616468846FEF733
:104420008FF910B94FF0FF302CE00546076080F897
:10443000048046B105F1100031462022A86009F041
:1044400088F8302002E00020A860102044B9002045
:10445000E86000203E2134222B46FEF729F90AE0CD
:104460002844E86000203E2134222B46FEF720F944
:10447000E9680978217044F29C31C2F201010022FE
:1044800081F89421BDE8F081F0B581B007460C2099
:104490001C4615460E46FEF753F9D8B10346076091
:1044A000067100F8055F290EC170290C8170280A79
:1044B0009871200A987200203F210C225C7200241F
:1044C000FEF7F6F844F29C31C2F2010181F8944102
:1044D00001B0F0BD4FF0FF3001B0F0BD2DE9F04765
:1044E000089D0746A8079A4690468946284602D066
:1044F000281D20F0030000F110042046FEF720F9EB
:1045000010B309990646076080F8049080F805808A
:1045100080F806A0856031B106F110002A46F060EF
:1045200009F017F801E00020F06000204021224649
:1045300033460024FEF7BCF844F29C31C2F201017C
:1045400081F89441BDE8F0874FF0FF30BDE8F08777
:104550002DE9F04381B0074698071C4691468846EE
:10456000184602D0201D20F0030000F11005284657
:10457000FEF7E6F808B308990646076080F804805D
:1045800080F80590846031B106F110002246F06099
:1045900008F0DFFF01E00020F060002041212A4602
:1045A00033460024FEF784F844F29C31C2F2010144
:1045B00081F8944101B0BDE8F0834FF0FF3001B0C5
:1045C000BDE8F0832DE9F04F85B01C46934689463F
:1045D000824600209107009003D10BF11800594644
:1045E00004E00BF0FC0101F11C00043100EB8B0036
:1045F00000EB01084046FEF7A3F810B94FF0FF307A
:104600005CE00E9F0546C0F800A080F8049080F89A
:1046100005B074B10BF1180605F11800B107A860D8
:1046200002D026F003010E1D21465A4608F091FFE4
:1046300002E000201826A8600F9C6FB14FEA8B02A1
:10464000A8191644B107E86002D0311D21F0030615
:10465000394608F07EFF01E00020E860DDE91079CE
:1046600034B1A81921465A46286108F072FF01E0CA
:1046700000202861C5F814908FB1002045F29141C7
:10468000CDE90100C1F22101684601AA0123CDE96B
:104690000379FEF7CDF810B14FF0FF3007E0009836
:1046A00042216861002042462B46FEF701F844F2A1
:1046B0009C31C2F20101002281F8942105B0BDE8CD
:1046C000F08F2DE9F047814688079A4616460F4637
:1046D000084602D0381D20F0030000F114084046BF
:1046E000FEF72EF810B94FF0FF3539E00546C0F857
:1046F000009047607EB107F1100405F11000A1079A
:10470000A86003D007F1140121F0030431463A46B2
:1047100008F01FFF02E000201024A860BAF1000F8B
:104720000ED02819E8600020432142462B46FDF7B1
:10473000BFFFE96805465046042208F00AFF08E07A
:104740000020E8600020432142462B46FDF7B0FFE1
:10475000054644F29C30C2F20100002180F8941119
:104760002846BDE8F087F0B581B007461820154609
:104770000E46FDF7E5FFE0B10446076006713DB166
:1047800004F10C0029460C22A06008F0E2FE01E0D2
:104790000020A06000204421182223460024FDF7B9
:1047A00087FF44F29C31C2F2010181F8944101B0CB
:1047B000F0BD4FF0FF3001B0F0BD2DE9F04381B006
:1047C000064690071D4614468846104602D0201D16
:1047D00020F0030000F110094846FDF7B1FFF8B1E1
:1047E0000746066080F8048084603DB107F1100040
:1047F00029462246F86008F0ACFE01E00020F8608F
:10480000002045214A463B460024FDF751FF44F273
:104810009C31C2F2010181F8944101B0BDE8F083FE
:104820004FF0FF3001B0BDE8F08370B506460820B8
:1048300014460D46FDF784FF80B1034606600571FE
:1048400044710020462108220024FDF731FF44F284
:104850009C31C2F2010181F8944170BD4FF0FF30EC
:1048600070BD2DE9F047044603EB4307102000EB31
:10487000870A50461E4691468846FDF761FF00B301
:1048800008990546046080F8048080F805908660E9
:1048900031B1BA0005F11000E86008F05AFE01E0FD
:1048A0000020E8600020472152462B460024FDF7F7
:1048B000FFFE44F29C31C2F2010181F89441BDE84F
:1048C000F0874FF0FF30BDE8F0872DE9F04186B06A
:1048D00006460020019014201D4690460F46FDF725
:1048E0002FFF10B94FF0FF302CE0DDE90C2104461A
:1048F0000E982660277184F80580C4E90252206171
:1049000089B10022CDE90222CDE9041045F291419E
:10491000C1F2210101A802AA0123FDF789FF10B10C
:104920004FF0FF3007E00198482120610020142259
:104930002346FDF7BDFE44F29C31C2F20101002284
:1049400081F8942106B0BDE8F0812DE9F04F85B0E3
:104950000F9C06460020009004EB440B242000EB43
:10496000CB0A50461F4690468946FDF7E9FE10B92E
:104970004FF0FF3049E010990E9A0546066080F826
:10498000049080F8058067B105F11C000E46394699
:1049900017460622A86008F0DCFD3A46314624207E
:1049A00002E00020A8601C20DDE911762A732C614A
:1049B00031B14FEACB022844686108F0CAFD01E03A
:1049C00000206861AE618FB1002045F29141CDE9D0
:1049D0000100C1F22101684601AA0123CDE9037655
:1049E000FDF726FF10B14FF0FF3007E00098492196
:1049F000A861002052462B46FDF75AFE44F29C3136
:104A0000C2F20101002281F8942105B0BDE8F08FC7
:104A10002DE9F04F85B08346002000902420984671
:104A200091468A46FDF78CFE10B94FF0FF3043E007
:104A30000EAD0446DDE91376DDE9113223CDC4F86D
:104A400000B084F804A084F8059084F80680E07132
:104A500051B104F11C0090460622A060994608F06E
:104A600078FD4B46424601E00020A060A58123610D
:104A70002275A6618FB1002045F29141CDE9010078
:104A8000C1F22101684601AA0123CDE90376FDF7B1
:104A9000CFFE10B14FF0FF3007E000984A21A0612F
:104AA000002024222346FDF703FE44F29C31C2F28B
:104AB0000101002281F8942105B0BDE8F08F10B506
:104AC00004460420FDF73CFE70B10346046000205C
:104AD0004B2104220024FDF7EBFD44F29C31C2F28D
:104AE000010181F8944110BD4FF0FF3010BDB0B509
:104AF000054608200C46FDF723FE78B10346056005
:104B0000848000204C2108220024FDF7D1FD44F2CE
:104B10009C31C2F2010181F89441B0BD4FF0FF30E9
:104B2000B0BD2DE9F04381B08146142000EBC108EF
:104B300040461C4617460E46FDF702FE10B94FF0E0
:104B4000FF3531E00546C0F8009046604FB1F200F5
:104B500005F110003946A86002F1100608F0F9FCD2
:104B600002E000201026A86074B1A819E8600020B7
:104B70004D2142462B46FDF79BFDE9680546204640
:104B8000042208F0E6FC08E00020E86000204D2147
:104B900042462B46FDF78CFD054644F29C30C2F29E
:104BA0000100002180F89411284601B0BDE8F0838F
:104BB0002DE9F04381B08146142000EBC108404646
:104BC0001C4617460E46FDF7BBFD10B94FF0FF35EA
:104BD00031E00546C0F8009046604FB1F20005F1A3
:104BE00010003946A86002F1100608F0B2FC02E09D
:104BF00000201026A86074B1A819E86000204E219A
:104C000042462B46FDF754FDE9680546204604223E
:104C100008F09FFC08E00020E86000204E2142469A
:104C20002B46FDF745FD054644F29C30C2F20100DB
:104C3000002180F89411284601B0BDE8F08370B5DA
:104C400006460C200C46FDF77BFD10B94FF0FF35F2
:104C500022E0054606604CB90020686000204F2124
:104C60000C222B46FDF724FD05460EE005F1080059
:104C7000686000204F210C222B46FDF719FD696862
:104C800005462046042208F064FC44F29C30C2F23F
:104C90000100002180F89411284670BDF0B581B064
:104CA00007462C2014460E46FDF74AFD10B94FF07A
:104CB000FF3729E00546076026B105F10C00686062
:104CC0001C2002E0002068600C200CB1284400E0A9
:104CD0000020A860002050212C222B46FDF7E8FC84
:104CE000074626B169683046102208F032FC24B12C
:104CF000A9682046102208F02CFC44F29C30C2F235
:104D00000100002180F89411384601B0F0BD2DE972
:104D1000F047099C0746A0079A46904689462046D8
:104D200002D004F0FC00043000F110052846FDF725
:104D300007FD20B30A9906460898376086F8049064
:104D400086F8058086F806A0F071347231B106F15C
:104D500010002246F06008F0FCFB01E00020F0604B
:104D6000002051212A4633460024FDF7A1FC44F2DD
:104D70009C31C2F2010181F89441BDE8F0874FF007
:104D8000FF30BDE8F08770B50646082014460D4692
:104D9000FDF7D6FC80B10346066005714471002022
:104DA000522108220024FDF783FC44F29C31C2F218
:104DB000010181F8944170BD4FF0FF3070BD2DE9C5
:104DC000F047099C0746A007994690460D462046A5
:104DD00002D004F0FC00043000F1100A5046FDF748
:104DE000AFFC18B30A99064608983760B58086F874
:104DF000068086F807903072747231B106F11000A7
:104E00002246F06008F0A5FB01E00020F0600020E1
:104E10005321524633460024FDF74AFC44F29C31AC
:104E2000C2F2010181F89441BDE8F0874FF0FF30F4
:104E3000BDE8F0872DE9F047099C0546A007984694
:104E400092460F46204602D004F0FC00043000F1E8
:104E500014094846FDF774FC18B30A9906460898E9
:104E6000C6E90057A6F808A086F80A80F0723473E5
:104E700031B106F114002246306108F06AFB01E00E
:104E800000203061002054214A4633460024FDF7BB
:104E90000FFC44F29C31C2F2010181F89441BDE85B
:104EA000F0874FF0FF30BDE8F087F0B581B00746DE
:104EB00010201C4615460E46FDF742FCC0B10346C5
:104EC0000898DDE90621C3E900769A819973D873C1
:104ED0000020552110221D819C720024FDF7E8FB63
:104EE00044F29C31C2F2010181F8944101B0F0BD5D
:104EF0004FF0FF3001B0F0BD2DE9F047089C0546AA
:104F0000A007984692460F46204602D004F0FC00C7
:104F1000043000F110094846FDF712FC08B3099966
:104F20000646C0E90057A0F808A080F80A80C472BD
:104F300031B106F110002246F06008F00AFB01E0F2
:104F40000020F060002056214A4633460024FDF739
:104F5000AFFB44F29C31C2F2010181F89441BDE8FB
:104F6000F0874FF0FF30BDE8F087F0B581B007461D
:104F70000C201C4615460E46FDF7E2FB90B1034699
:104F8000C0E9007605818472002057210C2200249C
:104F9000FDF78EFB44F29C31C2F2010181F894418D
:104FA00001B0F0BD4FF0FF3001B0F0BD70B5064666
:104FB0000C200C46FDF7C4FB10B94FF0FF3522E082
:104FC000054606604CB900206860002058210C227C
:104FD0002B46FDF76DFB05460EE005F10800686005
:104FE000002058210C222B46FDF762FB696805461C
:104FF0002046042208F0ADFA44F29C30C2F20100CF
:10500000002180F89411284670BD70B5064608202E
:1050100014460D46FDF794FB80B10346066085807B
:1050200084710020592108220024FDF741FB44F23D
:105030009C31C2F2010181F8944170BD4FF0FF3004
:1050400070BDF0B581B0074610201C4615460E46CF
:10505000FDF776FBA0B103460698C3E90076988178
:1050600000205A2110221D815C810024FDF720FBC5
:1050700044F29C31C2F2010181F8944101B0F0BDCB
:105080004FF0FF3001B0F0BDF0B581B00746102001
:105090001C4615460E46FDF753FBA0B10346069885
:1050A000C3E90076187300205B2110221D815C810A
:1050B0000024FDF7FDFA44F29C31C2F2010181F8AF
:1050C000944101B0F0BD4FF0FF3001B0F0BD2DE9CB
:1050D000F04186B00546002001901C2098461646F7
:1050E0000F46FDF72DFB10B94FF0FF3032E00446BC
:1050F000DDE90F100DF1300C9CE80C10C4E90057ED
:10510000268184F80A80A281236184F814C0A061FA
:1051100089B10022CDE90222CDE9041045F2914186
:10512000C1F2210101A802AA0123FDF781FB10B100
:105130004FF0FF3007E001985C21A06100201C22A5
:105140002346FDF7B5FA44F29C31C2F20101002278
:1051500081F8942106B0BDE8F0812DE9F04186B0D8
:1051600007460020019014201D4616468846FDF78C
:10517000E7FA10B94FF0FF302CE0DDE90C210446CE
:105180000E98276084F80480E680A5602273206171
:1051900089B10022CDE90222CDE9041045F2914106
:1051A000C1F2210101A802AA0123FDF741FB10B1C0
:1051B0004FF0FF3007E001985D21206100201422AC
:1051C0002346FDF775FA44F29C31C2F20101002238
:1051D00081F8942106B0BDE8F08170B5064618202C
:1051E0000D46FDF7ADFA08B9002019E004463EB1BE
:1051F00004F1080031461022206008F0AAF901E00D
:105200000020206000205E211822234665600024D3
:10521000FDF74EFA44F29C31C2F2010181F894414B
:1052200070BD000070B582B00D460646FDF730F83F
:1052300010B16FF0020459E02C20FDF781FA10B98B
:105240006FF0020450E004463EB104F1080031461C
:105250002022206008F07DF901E0002020604FF45A
:105260008170208546F6AE00608501A8656003F078
:1052700053F910B16FF002042FE0019901200022D0
:105280000023FCF727F810F10C0111D080B1063093
:10529000F0D1FCF7C8FB054640F6B836FCF758F9E4
:1052A000012805D0FCF7BFFB401BB042E2D8F5E770
:1052B0000120FBF76FFF012000212C222346FDF780
:1052C000F7F90446002811DC002000210022002309
:1052D000FCF700F80020FBF75DFF44F29C30C2F2BF
:1052E0000100002180F89411FDF7BFF9204602B0BB
:1052F00070BD10B504460420FDF722FAB0B1034694
:105300000460012001210422FDF7D2F944F29C300F
:10531000C2F20100002180F8941100200021002237
:105320000023FBF7D7FF0020FBF734FFBDE8104058
:10533000FDF79BB970B58CB044F25475C2F201050B
:105340000C4629680B9110B94FF0FF3053E0002C48
:10535000FAD011218DF819100DF11B060DF119016C
:105360000DF11A0200234FF0010CCDE90032CDE916
:1053700002163F211E220023CDF810C000F065FB6D
:105380009DF81A10A0BBA1BB9DF81900112802D0EE
:105390006FF041002FE0701C10F8021B9DF81D20DB
:1053A0009DF8213041EA0221027840789DF829C019
:1053B00042EA002041EA0040711D11F8022B2060F2
:1053C0000878497842EA032240EA012006F10D01FB
:1053D00042EA004011F8022B60600878497842EAFE
:1053E0000C2240EA012042EA0040A060002002E0D6
:1053F00009B10549081A29680B9A891A01D10CB01C
:1054000070BD08F097F800BF0CFEFFFF70B50646B0
:1054100040200C46FDF794F910B94FF0FF361BE021
:105420000546066014B105F1080000E00020686040
:105430000120192140222B46FDF73AF9064620B9F2
:1054400069682046382208F084F844F29C30C2F2A1
:105450000100002180F89411304670BDB0B50546BA
:1054600008200C46FDF76CF978B10346C0E90054FA
:1054700001201A210822FDF71BF944F29C31C2F2E7
:105480000101002281F89421B0BD4FF0FF30B0BD82
:105490002DE9F04784B00C2A43D3986869461C462E
:1054A000FDF7D3FAE8BB61680878012803D1616889
:1054B0004868026802B95FE04FF000090122012646
:1054C000002752B34068C7EBC70100EB8105A8462F
:1054D00058F80C0FB0B100EB40008000FBF725F945
:1054E000AA464AF8100F78B1287DA969424600F013
:1054F0008BF848B9DAF80000FBF798F90026CAF8EB
:10550000006001E0C5F810906168013748680268E2
:10551000974206F00102D4D372BB6068406801680C
:1055200001B95BE04FF0000900264068C6EBC601F8
:1055300000EB8108474657F8100F00284ED058F866
:105540000C1F386869B1002505EB450100EB8100AF
:105550008068FBF76BF9D8F80010013538688D4288
:10556000F2D3FBF763F9C7F8009060680136406832
:1055700001688E42D9D331E02068DDE902329847D4
:1055800060680078012829D160684068016829B303
:105590004FF0000900264068C6EBC60100EB810809
:1055A00058F80C1F474657F8040F69B1002505EB62
:1055B000450100EB81008068FBF738F9D8F800104E
:1055C000013538688D42F2D3FBF730F9C7F8009007
:1055D00060680136406801688E42DCD304B0BDE8E3
:1055E000F08708B900200EE000294FF00003F9D041
:1055F00084460020CA5C32B11A44531C634502D869
:1056000000F10100F6D370472DE9F04F83B0144646
:1056100018B90025002C65D165E00F460029F8D0A7
:105620000CB900255FE039468146FFF7DAFF834673
:1056300020680025584555D300214FF0000A002569
:10564000CDF804B05D4536D2C80734D117F80A60EA
:105650000AF101080EB901212AE008EB06004845CD
:10566000F9D830460291FBF760F8616805EB450315
:1056700001EB830200289060EDD0A6F1010B82F8C7
:1056800004B017F808200AF1020641F82320B919DE
:105690005A46984607F05DFF6068002100EB8800DD
:1056A00080680BEB060800F80B10DDE901B101354D
:1056B000C845C246C6D3C807ACD0002D4FF000067F
:1056C000A7D0606806EB460700EB87008068FBF711
:1056D000ADF86068013600EB87000021AE428160C2
:1056E000EFD300252560284603B0BDE8F08F44F2D3
:1056F0004C50C2F2010001210170704710B544F214
:105700004C51C2F20101002044F2380E0870C2F27E
:10571000010E002300210EEBC30294461CF8064F35
:1057200034B192888CF8000012B95EF8332011432E
:105730000F2B03F10103EED301B910BD02200022AB
:10574000BDE81040FCF7B4BA2DE9F04110B94FF0B4
:10575000FF306CE00029FAD0164644F24C52C2F2F7
:10576000010212781AB916B96FF062005FE00844BE
:10577000421E08461146FCF719FA0028F4D00546E7
:1057800010F0FF1F4DD144F238080020C2F201088A
:10579000002158F830C01CEA050F11D008EBC002F8
:1057A000134613F8064F24B99788002F08BF41EA23
:1057B0000C011EB193880133938001E0621C1A70C2
:1057C0000F2800F10100E4D309B900202FE00220E6
:1057D0000222FCF76DFA014600220123002818BFBF
:1057E0006FF03F0058F832C01CEA050F14D046B1E4
:1057F00091B108EBC20434F8047F6FB1013F2780F8
:105800000AE008EBC20707F1060409B9237003E0B8
:1058100027780FB1013F27700F2A02F10102E1D36F
:1058200005E025F0FF10002818BF4FF0FF30BDE85D
:10583000F08170B540B339B30844421E08461146A2
:10584000FCF7B4F900B310F0FF1F1DD144F2380E7D
:105850000022C2F2010E00215EF832C01CEA000FE5
:105860000DD00EEBC204234633F8045F3DB1A67998
:105870006C1E1C801EB9230408BF41EA0C010F2ACC
:1058800002F10102E8D301B970BD02200022BDE897
:105890007040FCF70DBA2DE9F04110B94FF0FF341C
:1058A00035E0064600680028F8D070680028F5D07A
:1058B0000D460029F2D0306800244FF01F0810B3C5
:1058C000706804EB440100EB81000279971CB84535
:1058D00019D3501C2870706850F8210068707368E4
:1058E000A81C03EB81010B798968934238BF1A46E3
:1058F00007F02FFE3168A8EB070001343D448C42CD
:105900001FFA80F8DCD32846414607F046FE2046C1
:10591000BDE8F08170B510B94FF0FF3010E00446DB
:105920000D4671B12E68002EF6D068680028F3D0BD
:105930001F202146FFF755FEB04208DD6FF0400002
:1059400070BD1F202146BDE87040FFF74ABE1F20F2
:1059500021462A46BDE87040FFF756BEFFF79BBFC1
:10596000FFF7D8BF10B504460420FCF7E9FE68B184
:105970000346046000205F2104220024FCF798FE07
:1059800044F29C30C2F2010080F8944110BD2DE930
:10599000F04381B091460F46054610461946012254
:1059A0009846FFF7D1FE064688BB2420FCF7C8FEC8
:1059B00010B96FF0410626E0089C064680E8A00278
:1059C000C0F80C804CB900203061002060212422F6
:1059D0003346FCF76DFE06460EE006F1140030611A
:1059E0000020602124223346FCF762FE316906461E
:1059F0002046102207F0ADFD44F29C30C2F20100B7
:105A0000002180F8941148464146FFF712FF3046C6
:105A100001B0BDE8F083B0B5054608200C46FCF7A0
:105A20008FFE78B1034605600471002061210822D1
:105A30000024FCF73DFE44F29C31C2F2010181F8E2
:105A40009441B0BD4FF0FF30B0BD2DE9F04F81B0B3
:105A50000C9F1E469246884683460FB9002000E000
:105A60003878B107314602D006F0FC0104318207D4
:105A700002D000F0FC000430084400F12809484638
:105A8000FCF75EFE10B94FF0FF3863E0DDE90A1362
:105A90000446C0F800B080F80480A0F806A00672A2
:105AA00071B106F1200504F12000AA07E06002D0E0
:105AB00025F00302151D32469A4607F04AFD03E021
:105AC000002020259A46E060BAF1000F0AD0681C39
:105AD00061198207216101D1054605E0681D20F0AA
